:020000040000FA
:10000000B0210020E19401003104000017940100A8
:1000100000000000000000000000000000000000E0
:1000200000000000000000000000000055950100E5
:100030000000000000000000310400003104000056
:10004000BD950100C395010031040000310400009A
:1000500031040000310400003104000031040000CC
:10006000C99501003104000031040000CF95010062
:1000700031040000D5950100C905000051150000AC
:10008000310400003104000031040000310400009C
:10009000310400003104000031040000310400008C
:1000A000DB950100E19501003104000031040000FE
:1000B000310400003104000031040000310400006C
:1000C00000F002F819F0F3F90CA030C80838241831
:1000D0002D18A246671EAB4654465D46AC4201D180
:1000E00019F0E5F97E460F3E0FCCB64601263342A5
:1000F00000D0FB1AA246AB463343184724960100B2
:1001000054960100103A02D378C878C1FAD8520741
:1001100001D330C830C101D504680C6070470000BD
:100120000023002400250026103A01D378C1FBD813
:10013000520700D330C100D50B6070471FB5C046D1
:10014000C04619F038F904B00FB41FBD40BA70476B
:10015000C0BA7047F0B44046494652465B460FB4B9
:1001600002A0013001B50648004700BF01BC864629
:100170000FBC8046894692469B46F0BC7047000003
:10018000C100000040BA7047C0BA70478269024996
:100190008161024810447047A10100000100000085
:1001A00001B41EB400B502F0EDFF01B4019886461B
:1001B00001BC01B01EBD000040BA7047C0BA704714
:1001C000401E00BF00BF00BF00BF00BF00BF00BF98
:1001D00000BF00BF00BF00BF00BFF1D170470000EB
:1001E00070B505460C46164602E00FCC0FC5103E12
:1001F000102EFAD2082E02D303CC03C5083E042EDB
:1002000007D301CC01C5361F03E021782970641C97
:100210006D1C761EF9D270BD10B572B600F0E4F810
:1002200000280BD000F0BDF901F043FA03F06AF8A2
:1002300072490020C86288627149086062B6002075
:1002400010BDF3B5002501200007C06A81B0C0438E
:100250000006000E0AD16B480168491C05D00068F1
:100260006949884202D06948FEBD012572B600F096
:10027000BBF8002801D062B688E0FFF76BFF00F002
:1002800096F9634C634A00212368CB40DB0720D0FA
:100290000346CB40DB0718D14BB2002B07DA1E0711
:1002A000360F083EB608B600B618F66904E09E0898
:1002B000594FB600F61936689B07DB0EDE40B304D3
:1002C0001B0E012B05D0032B03D062B64F48401EF6
:1002D000FEBD491C2029D7D3019C01204F49230092
:1002E00019F0C0F9142224242424242424240B0DDE
:1002F0001012142016181A1C1E2F002400E00124CE
:10030000C86314E00224FBE70324F9E70424F7E7B9
:100310000824F5E70924F3E70A24F1E70B24EFE7C3
:100320000C24EDE70524EBE7072400E00624D06960
:1003300001210002000AC9070843D061002D04D042
:1003400009E062B601200003FEBD2C4D3448E8628E
:1003500000F02DF9A8622A49324808603249029813
:10036000086000F024F9214602F0B3FF01F068F9BB
:1003700003F0F6F903F092F8019800F0A5F80400F4
:1003800062B603D0FFF748FF2046FEBD0020FEBD49
:1003900010B5044600F028F8002800D00120207095
:1003A000002010BD2149184808600020704710B592
:1003B0000C46102808D011280BD012280CD0132876
:1003C0000ED00120086010BD61682068FFF739FF7A
:1003D00008E0FFF721FF05E02068FFF7D9FF01E003
:1003E000FFF7E0FF206010BD05480E490068884215
:1003F00001D1012070470020704700000005004037
:100400001800002000100010000002000210000080
:1004100000E100E000ED00E000E400E0400000400A
:1004200000240000EFBEADDE14000020000000201C
:100430000348004703480449024A034B7047000041
:1004400079940100B0210020B021002010B50146B0
:1004500020220A4818F0F2FD08490020C877084613
:1004600010BD0749012048610648074A01689142CA
:1004700001D100210160704770477047D002002011
:100480000005004018000020EFBEADDE8307FF220C
:10049000DB0E9A408907090E994000280BDA000705
:1004A000000F0838830849489B001B18D8699043FF
:1004B0000843D8617047830845489B001B1818689B
:1004C000904308431860704710B50121044609079E
:1004D000C86A02063F48120E03D042681206120E86
:1004E0002AD1CA6A13063C4A1B0E02D18B6A934278
:1004F00022D1C96AC9430906090E02D10068904297
:100500001AD13648C16989B23C2915D034490A8CC0
:10051000D2B2012A12D18A8C12070FD10A8D12068B
:10052000120F012A0AD1898D0906090F06D1C06967
:100530002C49000C884201D1022010BD002101206D
:10054000FFF7A4FF00211820FFF7A0FF00210B20D8
:10055000FFF79CFF02211920FFF798FF02210D20D1
:10056000FFF794FF02210E20FFF790FF02210F20DA
:10057000FFF78CFF0221C81FFFF788FF0321162019
:10058000FFF784FF03211520FFF780FF204600F0CE
:1005900005FF204600F02EF8002010BD4D210180FF
:1005A000704710B500F038FF00F036F810BD0E4867
:1005B000704710B5C02802D300F056FD10BD00F002
:1005C0002CFF10BD704770477047000000ED00E041
:1005D00000E400E0001000100000020040000010E5
:1005E000C00F00F0FFFF000003F900C310B507F0D3
:1005F00072FC10BD10B5FC48017800290BD1012117
:100600000170FA480171FA4803F0FAFCF94803F066
:10061000AFFD05F0F0F910BDF3480178002907D0CF
:1006200010B500210170F148017103F066FD10BDA5
:100630007047ED480078002801D10220704710B5BE
:1006400003F05BFD03F032FE05F0D5F9002010BD8C
:10065000F8B50D4604001BD0E748844218D30121A9
:100660004907E64B8C4201D39C4211D3002D0FD099
:1006700085420DD38D4201D39D4209D3002A07D074
:100680001646824204D330468A4203D39A4201D2AC
:100690000720F8BD05F029FF6946009048782870CA
:1006A00009782170002801D00020F8BD0520F8BD90
:1006B000072801D9D2487047072A01D9D148704785
:1006C00070B504461D4605F0C5FA002805D1294637
:1006D000204605F002FB002802D0012189030843CF
:1006E00070BD072801D9C648704710B505F020FB3A
:1006F000002802D001218903084310BD072801D931
:10070000BF48704710B504F0E7FD002802D0012172
:100710008903084310BD072801D9B948704710B5AF
:1007200005F014FB002802D001218903084310BD05
:1007300010B505F0B1FB002802D001218903084360
:1007400010BD10B5072801D9AD4810BD002A0AD048
:10075000A94C1346A24206D301246407A24204D343
:10076000A64CA24201D2072010BD0A46002103F088
:10077000ECFF502803D001218903084310BD00205D
:1007800010BD10B5072801D99D4810BD002A0AD018
:10079000994C1346A24206D301246407A24204D313
:1007A000964CA24201D2072010BD0A46A02103F0B8
:1007B000CCFF502803D001218903084310BD00203D
:1007C00010BD70B5072801D98D4870BD002A09D029
:1007D000894DAA4206D301256D07AA4204D3874D4D
:1007E000AA4201D2072070BD04F004FF502803D0B4
:1007F00001218903084370BD002070BD002809D085
:100800007D4A904206D301225207904204D37B4A8C
:10081000904201D20720704710B504F03DFF002838
:1008200002D001218903084310BD10B504F040FF38
:10083000002802D001218903084310BD072801D9EF
:100840006F487047002909D06B4A914206D30122B4
:100850005207914204D3694A914201D2072070475E
:1008600010B50C4605F052FB2070002010BD10B5ED
:1008700005F04BFC002010BD072801D961487047E6
:10088000002909D05C4B994206D301235B079942AA
:1008900004D35A4B994201D20720704710B504F097
:1008A00045FC002010BD072801D95548704710B5F8
:1008B00004F010FA002010BD072801D950487047F5
:1008C000002909D04C4A914206D301225207914295
:1008D00004D34A4A914201D20720704710B50C4612
:1008E00004F004FA2070002010BD072801D9444804
:1008F000704710B504F0DAF9002010BD072801D9BF
:100900003F48704710B504F0F8F9002010BD0728E3
:1009100001D93B48704710B505F04CF9002010BDD7
:10092000072801D936487047002909D0324A914238
:1009300006D301225207914204D3304A914201D298
:100940000720704710B50C4605F04CF920800020B8
:1009500010BD072801D92A48704738B56C46217068
:10096000090A6170A270E370694605F011F9002868
:1009700002D001218903084338BDF8B51C4615464D
:100980000E46072801D91E48F8BD002919D01A4B78
:10099000994216D301225207184F914201D3BE4209
:1009A0000FD329000DD099420BD3914201D3BD4200
:1009B00007D3210005D0994203D3914203D3BC420F
:1009C00001D20720F8BD694605F0C0F868460178F5
:1009D0004078000208433080684680782870684676
:1009E000C07820700020F8BD1C00002010030020FB
:1009F000F0020020ED0500000000020000240020AD
:100A00003340000029400000072801D9FC48704706
:100A100010B505F0F1F8002010BD072801D9F848FD
:100A2000704710B505F0E5F8002010BD072801D982
:100A3000F348704710B505F0E3F8002010BD072813
:100A400001D9EF48704710B505F0DFF8002010BD60
:100A5000072801D9EA487047002909D0E94A91429C
:100A600006D301225207914204D3E74A914201D2B0
:100A70000720704710B50C4605F0CAF8207000201A
:100A800010BD072801D9DE48704710B505F0AEF853
:100A9000002010BD002809D0DA4B984206D301236C
:100AA0005B07984204D3D84B984201D20720704785
:100AB00010B505F031FB002802D00121890308435D
:100AC00010BD002909D0CF4B994206D301235B0703
:100AD000994204D3CC4B994201D20720704710B5FC
:100AE00005F050FB002802D001218903084310BD06
:100AF00010B505F006F8002802D00121890308434B
:100B000010BD10B505F006F8002010BD002809D072
:100B1000BC49884206D301214907884204D3BA4917
:100B2000884201D20720704710B5044604F0F7FF51
:100B30002070002010BD10B582B0072802D9B0483F
:100B400002B010BD002909D0AE4CA14206D3012449
:100B50006407A14205D3AC4CA14202D2072002B0E7
:100B600010BD0C786B461C704C785C708C789C7057
:100B7000C978D9701A71694604F0BCFD0028EED01E
:100B800001218903084302B010BD072801D99C4800
:100B9000704708B56B4619705A70694604F092FDAB
:100BA000002802D001218903084308BD072801D984
:100BB0009348704710B504F0C4FD002010BD10B577
:100BC00004F0B5FD002010BD002809D08D498842F1
:100BD00006D301214907884204D38B49884201D2B8
:100BE0000720704738B50446684604F0A3FD684600
:100BF00001784078000208432080002038BD002999
:100C000009D0804B994206D301235B07994204D354
:100C10007D4B994201D20720704710B505F0C2FD07
:100C2000002802D001218903084310BD002909D002
:100C3000744B994206D301235B07994204D3724B4C
:100C4000994201D20720704710B505F0B7FD002882
:100C500002D001218903084310BD072801D9684843
:100C6000704710B505F0B8FD002802D001218903B6
:100C7000084310BD072801D96148704710B505F039
:100C8000B7FD002802D001218903084310BD0029C7
:100C900009D05C4B994206D301235B07994204D3E8
:100CA000594B994201D20720704710B505F02BFE31
:100CB000002802D001218903084310BD002909D072
:100CC000504B994206D301235B07994204D34E4B04
:100CD000994201D20720704710B505F024FE002884
:100CE00002D001218903084310BD002909D0454BDA
:100CF000994206D301235B07994204D3424B9942A0
:100D000001D20720704710B505F026FE002010BD67
:100D100010B505F044FE002802D0012189030843E4
:100D200010BD70B5002811D0364A90420ED3012371
:100D30005B07354C984201D3A04207D3002905D068
:100D4000914203D3994203D3A14201D2072070BD3F
:100D500005F043FE002070BD072801D928487047E0
:100D600070B514460546012226485207264B002935
:100D700005D081420BD3914201D3994207D3002C75
:100D800007D0844203D3944203D39C4201D207206C
:100D900070BD002902D0284604F011FD002C03D0BC
:100DA0002146284604F049FD002070BD072801D9DE
:100DB0001348704770B51446054601221148520782
:100DC000114B002905D081420BD3914201D39942A6
:100DD00007D3002C07D0844203D3944203D39C4210
:100DE00001D2072070BD002902D0284604F009FD79
:100DF000002C03D02146284604F02CFD002070BDB5
:100E0000334000000000020000240020002809D028
:100E10009049884206D301214907884204D38E496C
:100E2000884201D20720704710B5044604F07AFECC
:100E30002070002010BD002809D08649884206D3C2
:100E400001214907884204D38349884201D20720FF
:100E5000704710B5044604F06AFE2070002010BDF3
:100E6000072801D97D487047002909D0794A914265
:100E700006D301225207914204D3774A914201D20C
:100E80000720704710B50C4604F057FE2070002074
:100E900010BD072801D971487047002909D06D4A53
:100EA000914206D301225207914204D36A4A9142E9
:100EB00001D20720704710B50C4604F041FE2070A7
:100EC000002010BD10B503F0A1FE002010BD10B52C
:100ED00003F0A2FE002010BD10B5002809D05D4A25
:100EE000904206D301225207904204D35A4A9042BC
:100EF00001D2072010BD5A4A811A002901DD0B29B1
:100F000004DB0B22564918F0FDF806E00021535C83
:100F10004354491CC9B20B29F9D3002010BD10B4A9
:100F20000123002809D04B4A904206D35C070021D8
:100F3000A04205D3484CA04202D210BC0720704703
:100F40000822027042708170B222C2703622027191
:100F50004171D5218171C37110BC00207047F8B573
:100F60008446012606203B4D76073B4F0C46002960
:100F700005D0A94213D3B14201D3BC420FD3002AFA
:100F800005D0AA420BD3B24201D3BA4207D3002BF9
:100F900007D0AB4203D3B34203D3BB4201D20720F5
:100FA000F8BD6146002908D001290BD00229F7D1EC
:100FB000207805F019FD0020F8BD207803F0B7F97E
:100FC0000020F8BD03F0B7F92070F4E7F8B58446C7
:100FD000012606207607204F1E4D0C46002905D01D
:100FE000A94213D3B14201D3BC420FD3002A05D08A
:100FF000AA420BD3B24201D3BA4207D3002B07D087
:10100000AB4203D3B34203D3BB4201D20720F8BDA6
:10101000614600290AD00129F9D1124822788105B8
:10102000002A826A10D00A4382620BE00026304612
:101030002660002D06D9317808F0A7F9761C2060CB
:10104000AE42F8D30020F8BD8A43EDE710B50BF0AF
:1010500010F810BD00000200002400203340000002
:10106000909601000005004010B5C0380C4640289D
:101070002DD203007B441B79DB189F441F222933A8
:10108000373B3F434A515A5F62676D727A80868B65
:10109000959CA2A8AEB4B9BFC5CACEEFF3FAEBEAED
:1010A000E9E8E7E6E5E4E3E2E1E0DFDEDDDCDBDA28
:1010B000D9D8D7D6D5D4282828D328D2FFF7B9FA3B
:1010C00004E0A26861682068FFF7C2FA206010BDE2
:1010D000207BC3B2207AC2B22079C1B22078FFF758
:1010E000E7FAF3E72078FFF7FCFAEFE72078FFF75D
:1010F00005FBEBE72078FFF70EFBE7E72078FFF72B
:1011000017FBE3E72079A268C1B22078FFF719FB4B
:10111000DCE72079A268C1B22078FFF732FBD5E77F
:10112000207BA268C3B2A08881B22078FFF749FB78
:10113000CCE720786168FFF781FBC7E7FFF797FBF3
:10114000C4E720786168FFF797FBBFE72079C1B259
:101150002078FFF7A8FBB9E720786168FFF7ACFBC0
:10116000B4E7207AC2B22079C1B22078FFF7BDFB84
:10117000ACE72079C1B22078FFF7C0FBA6E7A088D2
:1011800081B22078FFF7C3FBA0E720786168FFF702
:10119000C7FB9BE7207BC3B2207AC2B2A08881B292
:1011A0002078FFF7D6FB91E72078E368A2686168B2
:1011B000FFF7E3FB8AE7A08881B22078FFF724FCE1
:1011C00084E72079C1B22078FFF727FC7EE72079F9
:1011D000C1B22078FFF72AFC78E72079C1B22078E5
:1011E000FFF72DFC72E720786168FFF731FC6DE7AF
:1011F0002079C1B22078FFF744FC67E72079C1B2BB
:101200002068FFF747FC61E720786168FFF759FC29
:101210005CE72078FFF76CFC58E72078FFF771FC5B
:1012200054E7B4E0ACE0A5E09EE098E091E08BE00C
:1012300085E07FE074E06DE067E061E05DE058E04C
:1012400053E04EE045E041E03BE035E030E02BE0AC
:1012500026E020E015E00CE004E0FFE72068FFF75F
:1012600055FC33E7207A6168C2B22078FFF763FC4F
:101270002CE7207AC2B22079C1B22078FFF785FC32
:1012800024E7207BC3B2207AC2B22079C1B2207891
:10129000FFF78CFC1AE7208880B2FFF790FC15E777
:1012A0002068FFF791FC11E72068FFF7AFFD0DE71D
:1012B0002068FFF7C0FD09E720786168FFF7D0FDDF
:1012C00004E720786168FFF7E4FDFFE6FFF7FAFD29
:1012D000FCE6207AC2B22079C1B22078FFF7F7FD90
:1012E000F4E62068FFF7F8FDF0E62068FFF717FE48
:1012F000ECE62068FFF782FAE8E6FFF796FAE5E603
:1013000020786168FFF77BFCE0E620786168FFF7F2
:101310008DFCDBE62079C1B22078FFF79EFCD5E694
:10132000207BC3B2207AC2B22079C1B22078FFF705
:10133000A1FCCBE620786168FFF7A9FCC6E620781F
:101340006168FFF7BBFCC1E620786168FFF7CDFC60
:10135000BCE6A08881B22078FFF7DAFCB6E66168C7
:101360002068FFF7DEFCB1E62078A2686168FFF72D
:10137000F3FCABE62078A2686168FFF717FDA5E6ED
:101380002078E368A2686168FFF7E9FD9EE62078AF
:10139000E368A2686168FFF719FE97E630B5054675
:1013A000384C95B006202070A01CFFF7F7F85920A4
:1013B000A080354861880069344A80B2D269344BD4
:1013C000120C984204D18A4208D032A1B42003E022
:1013D000884203D02FA1B72018F017F8364801F043
:1013E000DBFF0446072009F0E7FE2146254808F008
:1013F00041FE6D1E072D0AD83021684601708570A8
:1014000009F0FEFD002802D009A809F097F820464F
:1014100008F053F915B030BD704710B50C460146C1
:1014200060390B2903D8214608F0B4FD06E00146D7
:101430006C39032904D8214608F0DFFD206010BD77
:10144000014670391F2903D8214607F0B5FFF5E79B
:10145000014690390F2903D8214608F037F8EDE707
:101460000146A0390F2903D8214608F084F8E5E7A2
:101470000146B0390F2903D8214608F0E8F8DDE726
:101480000120DBE71E0000200010001040000010CB
:10149000FFFF00002E2E5C736F66746465766963CF
:1014A000655C7372635C636F72655F66756E6374AF
:1014B000696F6E732E630000719A00000120274946
:1014C000C0030860264900200870112025498002C9
:1014D0008860704770B5224D04462878A04207D036
:1014E000002C05D0002803D01FA14D2017F08DFF40
:1014F0002878A0420FD0002021492C70002C20D049
:10150000204D214B214A012C06D0022C11D016A1CE
:101510006A2017F07AFF70BD0860022008604D61F4
:101520001C481B4901624362081D10601A48506044
:1015300070BD0860032008604D611848106053605A
:1015400070BD08600860112006498002886070BD87
:1015500010B505A1732017F058FF10BD80E100E021
:101560002400002000F5014068616C5C7372635CCC
:1015700068616C5F63636D5F6161722E6300000080
:1015800000F500401803002000F0004080F5014005
:101590000011004040F5014004F000404881004047
:1015A000F8B5FE4C607A217A88421BD00126FC4DAA
:1015B0000027207A215C14200A4642435019037CFC
:1015C000052B10D0062B19D0072B23D0437C012BE1
:1015D0002BD02120F3A1400117F017FF617A207A68
:1015E0008142E6D1F8BD0674207A401C4007400FC6
:1015F0002072491CC8B2AA58022109E00674207A58
:10160000401C4007400F2072491CC8B2AA58032151
:101610009047E3E70674207A401C4007400F207291
:10162000491CC8B2AA580821F2E74774207A401C26
:101630004007400F2072491CC8B2AA580721E7E7AB
:1016400070B5DB4D05202871DA4800244470047021
:10165000183044720472D8480AF048F8D748047425
:10166000AC71D748611E41606C708477C4772C7070
:101670004477D448022104704470D348047528305C
:101680000470491EFAD1012001F0E0F8002001F0B9
:10169000DDF80120A87001F06DFECC4801F07CFE61
:1016A000CB4C2070CB4801F077FE607001F072F8EF
:1016B00070BD10B501F099F8C54C207801F08AFE94
:1016C000607801F087FEBA4CE078002805D009F078
:1016D0004AFE01F086FB0020E07010BD70B5B44CEE
:1016E000A078002805D0FF20AEA1B23017F08DFE03
:1016F00070BDA079002804D1FF20AAA1953017F071
:1017000084FE0125A5700026A671207904211422EB
:101710005043A34AAA4C801801746068401C04D04E
:10172000481F6060012001F091F8002001F08EF860
:1017300001F072F801F07DF901F002FAA148007899
:10174000022804D0032804D1E07F002801D0A57727
:1017500000E0A67701F059F970BD034690490420D6
:10176000142242435218203A127F002A04D0401E0D
:101770000006000EF4D170471422424351180A4665
:10178000403AD362012220390A777047012805D0F8
:10179000032805D1002903D1002070470029FBD080
:1017A00010B4874C00236377864A002890700CD0D1
:1017B00002280AD007291AD20B007B441B79DB18B8
:1017C0009F441505070D0F111300D37003E01B2074
:1017D00000E03A20D0700120607710BC704758209C
:1017E000F8E77720F6E79620F4E7B520F2E710BC9B
:1017F0000020704710B57348407801F01EF980B2A0
:1018000010BD411E1422504310B5654A8418203C77
:10181000032902D8207F002803D162A16E4817F067
:10182000F4FD207F012804D001205EA1400217F0C2
:10183000ECFD0020207710BD70B55E4C60782178FB
:10184000884201D1012500E0002501F090F801F067
:10185000F4F861782278914201D1012100E0002161
:10186000A942EBD170BDF7B58CB006460D98142196
:10187000401E0090C0B2029048434949451828468E
:101880000195007C2D1D07282DD1444F00203C7A66
:10189000797AA14224D03A5D02998A4209D100287E
:1018A00005D040A14D4817F0B0FD012003E0012014
:1018B00001E0002804D0611C4907490F795C3955C3
:1018C000641C6407797A640FA142E4D1002807D030
:1018D000787A002802D0787A401E00E007207872DB
:1018E0000198012101740099314C0D9803290FD8FA
:1018F000142148432A4940182038007F002807D087
:101900000198007C012807D00E98C07A012807D0E2
:1019100024A1334817F079FD0E98C07A012839D1F7
:1019200001981F4A007C02280FD01C4C607A217A53
:10193000401C4007400F884203D11AA1294817F0E4
:1019400064FD01990120487433E12079029B01462E
:10195000984206D00146142778438018807C98422C
:10196000F8D12379834208D1217914235943891866
:10197000897C21710121617107E0142343439B1885
:10198000142779439B7C89188B74142305215843B1
:10199000801881740E98007A062825E02C04002017
:1019A000440300207372635C72656D2E6300000057
:1019B00058040020140400205F04002018040020B4
:1019C000380400202700002040030020E3BB000073
:1019D00025000020A1150000FF01000045020000C5
:1019E0004E0200005B02000013D203007B441B790F
:1019F000DB189F44020C0A08060400200FE0B42004
:101A00000DE073200BE0322009E00A2007E00820F7
:101A100005E0FF20F649443017F0F7FC0020039062
:101A20000E98C07A02280E9824D0807A28720E98D8
:101A300003990068401A28600E99097A002961D03C
:101A40000221401A0002000A28600E9801684068CE
:101A500008186860C01D0002000A68600E9806271A
:101A6000407AA8720E98007A68720AF049FB002842
:101A70004AD053E04168007A00282DD0022009188E
:101A80000398C01D09182079052827D0D948039A42
:101A90004078904200D81046801A4218D648921DCD
:101AA0008446207914235843D44BC0184368806877
:101AB0009B1B801B1B0200021B0A000A9A4204D8CF
:101AC000CD4A934201D8604508D922791420424377
:101AD000CA48101880680CE00420D0E7C548039A73
:101AE0004078904200D81046801A8019801D00026C
:101AF000000A286040180002000A6860002028726E
:101B00006868A7E704219CE7687A032806D20028C2
:101B100004D0039838210F1A32200390B548017879
:101B2000012901D003290AD140780399884206D9B6
:101B3000B349C97F002902D10399401AC719AE4998
:101B400038468C4629688F1B69683A02891B0B024C
:101B5000120A1B0A90421DD8A74882421AD8634530
:101B600018D82079012205282ED0002001230493C3
:101B70002379BC4614225343A04A9B185A68921BEF
:101B80008A4203D29A68921B62452BD800220AAF80
:101B90003A5430E0019905209A4C0874607A217A11
:101BA000401C4007400F884203D197A1994817F085
:101BB0002CFC617A02986054607A401C4007400F08
:101BC000607200200FB0F0BD0199022302980B74DF
:101BD0002379052B00D023798B7420716271012049
:101BE0000FB0F0BD01220AAF3A549A7BAF7ABA42E5
:101BF00001D8002204929B7C401CC0B2052B03D06C
:101C0000049A002AB6D1A4E0049800286FD0257960
:101C10000520002704900AA8C05D01282CD0049557
:101C20001420454375487F1C2818857CFFB2052D7C
:101C3000F1D1019802230374704F2079052857D001
:101C400025790520049001984068811B1420684381
:101C5000C0194268921B8A4265D92079A84252D1A4
:101C60000198029A03742179052900D021798174A1
:101C700022710120607169E02079A8420BD121799D
:101C8000142041435D480818807C20710120607158
:101C90000020207010E00498052803D15AA15E4866
:101CA00017F0B3FB1420554A68438018817C0498D0
:101CB00014235843801881741420504A0621684325
:101CC000801801744F48417A007A491C4907490F2E
:101CD000814203D14CA1514817F097FB4948417A02
:101CE0004554417A491C4907490F417298E730E051
:101CF000227902990198052A00D0227982742171F3
:101D00000120607122E00498052803D13EA14448D7
:101D100017F07BFB049814225043C0190299817478
:101D20000198857412E0807C052807D0049505464B
:101D30008CD135A13B4817F068FB21E014214D43BD
:101D4000E9190298887401990520887401200FB060
:101D5000F0BD019905202B4C0874607A217A401C53
:101D60004007400F884203D127A12F4817F04DFBB1
:101D7000617A02986054607A401C4007400F60729C
:101D800000200FB0F0BD70B50D460646274900246F
:101D90002046891BA04103D21BA1254817F035FB23
:101DA00024490020491BA04103D217A1224817F063
:101DB0002CFB224A70190021821A8C4101D3204940
:101DC000401870BDF8B5401EC0B2142148430B49FD
:101DD0004518687B06283DD203007B441B79DB183D
:101DE0009F44023634323004002067E0B4203AE0E9
:101DF000A419000027000020FFFF3F00440300203B
:101E0000380400202C0400207372635C72656D2E10
:101E100063000000A3020000DE020000E3020000F5
:101E200007030000170300001D030000FF7F841E4E
:101E3000290300000020A1072A0300000080841E5F
:101E400000807BE173200EE032200CE00A200AE0E3
:101E5000082008E0FF20FE49443017F0D6FA697BDD
:101E6000002000292AD00221401869680024401867
:101E70000C2100026956000A002921DB00F0DDFD7B
:101E8000F44A06460C27EF570021101AA14103D24D
:101E9000EF49F14817F0B9FAF0490020C91BA041F9
:101EA00003D2EB49EE4817F0B0FAEE4AF0190021E0
:101EB000821A8C4101D3EC494018F8BD0421D3E7C4
:101EC00000F0BBFD0C21695600224018E149091AB7
:101ED000A241F2D24042F8BDF0B5074683B0E348D4
:101EE0000E46029009F00AFCE14C00282DD0E14D8D
:101EF000287C002803D0E0A1E24817F086FA0120F0
:101F000028742F733078287270786872D94FDE4A3F
:101F10002946706800F09DFD0A2028560F2804DD30
:101F20001F38B8723868401C38600021B0686A46B3
:101F30000091117101AA694600F08BFD6A460420E8
:101F400010560F2846DD012045E060782178401CBE
:101F50004007400F884203D1C7A1CC4817F055FA7B
:101F600060780101CA4809180F73617809010D18DA
:101F700030782872707868722A460A32294670686A
:101F800000F067FD0A2028560F2804DD1F38A872CC
:101F90002868401C28600021B0686A4600911171D1
:101FA00001AA694600F055FD6A46042010560F2824
:101FB00001DD012000E00020009940186860307BBE
:101FC000E8726078401C4007400F6070029809F08A
:101FD000ADFB05E00020009940187860307BF87276
:101FE00060782178884224D0AA480579052D22D02E
:101FF00000F0BDFC14214D43A74969180A7C042A4E
:1020000017D0032A15D04B6889681B1A091A1802C1
:102010000902A24A000A090A06280AD31346904276
:1020200007D8994205D860782178884201D000F01D
:10203000ECFC03B0F0BD607821788842F7D103B0A2
:10204000F0BD10B5002000F0EEFB10BD10B5012072
:1020500000F0E9FB10BDF8B50546022875D08D4C9F
:102060002079052803D184A18D4817F0CEF90020EE
:10207000A0700126A671207903211422864F5043B7
:10208000C019017400F0C6FC2800864D08D0012854
:102090001CD0022859D003287ED077A1824833E093
:1020A0006670002000F0D2FB6968481C04D0012350
:1020B0000022184600F002FC20792179401CC0B2B1
:1020C000142251437A5801219047F8BD012000F0B5
:1020D000BDFB607800280CD06868401C09D02079CE
:1020E0002179401CC0B2142251437A5806219047EE
:1020F000F8BD287E01280AD0022812D0032825D056
:10210000042836D05CA1694817F07FF9F8BD207823
:10211000002804D00020207000F081FCEE77002021
:1021200025E0E078002804D109F0FEF800F030FE48
:10213000E67020792179401CC0B2142251437A58AC
:102140000021904700202876F8BD2FE0297A2868E2
:102150000123411A0022184600F0B0FB2078002825
:1021600004D00020207000F05AFCEE770220287680
:10217000F8BD297F28680123411A0022184600F083
:102180009DFBE078002804D109F0CEF800F000FEB5
:10219000E6702079401C00E00DE02179C0B21422E5
:1021A00051437A58002190472E76F8BD4048007878
:1021B00001F016F9F8BD20792179401CC0B2142233
:1021C00051437A5805219047F8BD10B5314C20791C
:1021D000052803D128A1374817F017F9207921796C
:1021E000401CC0B2142251432B4A5258042190473C
:1021F00010BDF0B583B0052600F0B9FB254C0546AF
:1022000021792D48019005291FD0217914204143BF
:1022100021480918097C042917D021791422514337
:102220000818007C03287DD001981C49026840688A
:10223000521B401B12020002120A000A062A71D326
:102240000B468A426ED898426CD81648406835E0F2
:10225000081E0000FF7F841E290300000020A10744
:102260002A0300000080841E00807BE15F040020C0
:1022700014040020180400207372635C72656D2ED4
:10228000630000006E030000220400205F030000D2
:10229000940300205804002044030020FFFF3F0067
:1022A000A203000038040020F3030000E70300004D
:1022B00025000020FA03000044040020401C03D045
:1022C000F4A1F74817F0A1F80020607020790528E4
:1022D00008D1F448407F002804D0F348C178417009
:1022E000817801702079052814D020791421484381
:1022F000EE494018007C04280CD12679227901206F
:1023000014235A435218107422795A435118897C65
:1023100021716071E64F78783978884215D0387825
:10232000010100E07EE1E3480A1839780901081844
:10233000017B2846FFF797FA3878401C4007400F8A
:102340003870787839788842E9D1DB4F387C0028BA
:1023500006D0397B3A462846FFF785FA00203874C4
:10236000052E1BD0142031464143D0480818017C6B
:10237000012913D10721D14F0174787A401C0840FC
:10238000397A884203D1C3A1CD4817F03EF8787A54
:102390003E54787A401C4007400F78722079052817
:1023A0007ED0607900287CD00020607121791420D3
:1023B0004143BE48BB4F0E18C249B3687268F66805
:1023C0008E604B600A60797D002910D00226217949
:1023D0001422B64851430818407B062815D2030042
:1023E0007B441B79DB189F44040E0C0A0806042664
:1023F000EDE700200FE0B4200DE073200BE0322069
:1024000009E00A2007E0082005E0FF20A1A14430F0
:1024100016F0FBFF0020C1B23972787D022801D08E
:1024200001280FD1F8684018421B1202120A382AFC
:1024300008D93238032100027975000AF860322089
:1024400038720AE0322908D2E07800280ED108F06C
:102450006BFF00F09DFC012007E0E078002805D02C
:1024600008F081FF00F0BDFC0020E0708E4A0621DC
:10247000507838771278012A01D0032A06D1012238
:1024800022703A7A904201D9811A891DBA7F002AB6
:1024900000D0891C2378002B01D1002A61D001E0F3
:1024A0008BE09BE08C468849009101990B68496854
:1024B0005B1B491B09021B02090A1B0A01919C456F
:1024C00039D8814DAB4236D8019B00998B4232D826
:1024D000397A884214D9FB68421A9A1A1202120AEF
:1024E000101880190002000AFA603860002905D02F
:1024F000032038760006000E3ED14CE00120F8E7BC
:1025000081420BD9FA68511889190902090A396000
:10251000002801D00420ECE70220EAE7002A03D1DA
:102520005CA16A4816F071FFF86880190002000A81
:102530003860002013E000202070B877397A002935
:1025400008D0F868401880190002000A386002209C
:10255000387611E0F96889190902090A3960387674
:1025600019E0387A00280FD0F9680818801900029D
:10257000000A386002203876F868012381190022A9
:10258000184600F09BF909E0F86880190002000A7B
:10259000386000203876012000F058F920791421A5
:1025A000484342490C2240188256012300203968D2
:1025B00000F084F900F0B8FA10E0012000F046F9CC
:1025C000002000F043F900F027F9E078002805D05A
:1025D00008F0C9FE00F005FC0020E070314DA87F36
:1025E000002804D000F01BFA0020E877A877687F65
:1025F000002804D02C48C17841708178017020787F
:10260000002806D000202849E8770978002900D161
:1026100020702A48417A007A814203D02C484078C1
:1026200000F0DEFE03B0F0BDF0B52A4C074620797D
:1026300083B0052803D117A1274816F0E6FE2079BC
:1026400014211A4E48438019007C032804D05120DD
:1026500010A1000116F0D9FE124D6868401C03D08D
:102660000CA11E4816F0D1FE20791421484381198F
:102670000C20085600216A4600911171C01901AA68
:10268000694600F0E6F96A46042010560F2827DD57
:10269000012026E07372635C72656D2E630000009A
:1026A00036040000380400202700002044030020E6
:1026B0001404002094030020180400202C0400209F
:1026C0005C04000044040020FFFF3F00AE04000053
:1026D00025000020580400200F050000110500000F
:1026E000002000994018296840180102090A696011
:1026F0006078002804D001230022184600F0DEF89C
:1027000003B0F0BDF8B51D4D0A1A00242346551B31
:10271000A34106D3194E431A254600279E1BBD41EF
:1027200001D21046F8BD164E0025B21AA54103D2BB
:10273000721C101A4018F8BD114D0022EB1AA2416C
:1027400004D26A1C511A08184042F8BD0DA1104865
:1027500016F05BFE0020F8BD10B5014601230022F3
:10276000022000F0ABF810BD10B5022000F06EF8AA
:1027700010BD10B500F0FBF810BD00000020A1074F
:10278000FF7F841E7372635C72656D2E63000000B0
:102790003405000030B40121BD48C9020160CD10EC
:1027A00005604A030260BB4803681B021B0A036002
:1027B00004680023240A24020460B7480468240A39
:1027C00024020460B548012444608460B44C236052
:1027D0006360A360B34B19601D601A60B24B19604F
:1027E0001A600121016030BC704710B40121A84873
:1027F000CC0204600A0202600B060360A748416035
:102800008160A7490020086048608860A54804608E
:102810000260036010BC70470121A248C902016038
:10282000C91001607047002805D0012805D0022892
:1028300005D19E4870479E4870479E48704710B526
:102840009DA18C2016F0E1FD002010BD70B5002187
:10285000A04CA14DA14A924B002808D001281FD0BE
:10286000022824D094A1B42016F0CFFD70BD012021
:102870000004A060A86011601960994B42109A6032
:10288000984A9060824A00121060864A106096480A
:10289000016087480160954801609548017070BDEE
:1028A00001204004A060A8605160596070BD012003
:1028B0008004A060A8609160996070BDF8B59446EE
:1028C000844A854D00240127754E002808D0012830
:1028D00036D0022844D078A1E92016F096FDF8BD44
:1028E000891E0902090A01200004906034606860B2
:1028F0007A4A1160012B21D000217D4A7D4B517015
:1029000061463D31DC63DF637B4B5C6002249C608D
:1029100004241C61744B196074490F60614B891564
:102920001960704B58606048016075487349C16018
:1029300086606B49600348601770F8BD0121DCE7D1
:1029400001205C4E40046F4F012B04D13460506075
:1029500068603960F8BD9060346068603960F8BDC7
:102960000120524E8004684F012BF4D1EEE76748F6
:102970004068704770B54A4D28680026554C0128BC
:1029800006D1A068C00303D501200004A0602E601A
:102990006868012809D1A068800306D50120400499
:1029A000A0606E600120FFF756FBA868012809D1DE
:1029B000A068400306D501208004A060AE6002201C
:1029C000FFF749FB70BD10B54949087800281AD0B7
:1029D0000120434AC0039060424A400090602C4A64
:1029E000001210602F4A10603F4A00201060304AE9
:1029F00010603E4A106008704A78002A02D0487081
:102A0000FFF729FB10BD0320FAE70120404900062B
:102A100008607047012023490006086070470120C4
:102A20003B4940050860704701201E494005086089
:102A3000704730490020C8637047410A354AC005D5
:102A4000C00D50435143801C08225040400A0818D2
:102A5000704710B4304C430B63431B0C5C020C609A
:102A60002C4C6343C31A2D485C025843294B400D3C
:102A70004343E31A9B1C082463405B1213700A68EB
:102A80001018086010BC704710B5FFF7B2FB10BDFE
:102A900080E100E008E400E018E400E000B000405D
:102AA00040B1004080E200E000E100E048B10040B9
:102AB0004081004044B100407372635C72656D5F99
:102AC00068616C5F6576656E745F74696D65722EA2
:102AD0006300000000B3004040B3004040B5004038
:102AE00000F5014000830040408500400082004026
:102AF0002B000020C08F0040008500400080004077
:102B000080F5014044B5004048B5004000B50040A4
:102B100000E200E0093D0000378600006F0C010074
:102B200010B5FFF752FB10BD012001218140064A7C
:102B3000116000BF00200549C8630120C8637047C9
:102B400000200249C863704780E100E0C01F0040D8
:102B500070B520380C46030016F084FD331B1F238C
:102B6000272C31373C41484E5155595D616F736791
:102B70006B767A7E82868A8E92969AB2B5B8BCC0FF
:102B8000C4C8CED2D6DBE0F0EEEDECF4F8E9FCE719
:102B9000E600206808F0AAFDF4E0206808F0AEFD29
:102BA000F0E0206808F0C2FDECE0207840B208F0C8
:102BB000E0FDE7E0207840B208F001FEE2E0207896
:102BC000616840B208F017FEDCE0207840B208F0FF
:102BD00027FED7E0207840B208F032FED2E020791C
:102BE000C1B2207840B208F03CFECBE020786168AA
:102BF00040B208F06CFEC5E008F078FEC2E0206844
:102C000008F07CFEBEE0207808F091FEBAE0206873
:102C100008F088FCB6E0206808F088FCB2E0207973
:102C2000C1B2206808F089FCACE0206808F0D2FA54
:102C3000A8E0206808F0D3FAA4E0207808F0D3FADE
:102C4000A0E008F0E1FA9DE0207808F0E3FA99E0CE
:102C5000207808F0F5FA95E0206808F00EFB91E086
:102C6000206808F010FB8DE0206808F012FB89E076
:102C7000206808F013FB85E0206808F015FB81E070
:102C8000206808F017FB7DE0206808F018FB79E069
:102C900001F051FBC0070025002805D001F04FFBD3
:102CA000002801D0256070BD01F045FB800703D5E9
:102CB00001F04CFB0028F5D12046FDF767FA61E0F2
:102CC00000F079F85EE000F0A6F85BE0206800F024
:102CD000AEF857E0206808F0BFFE53E0206808F027
:102CE000C1FE4FE0206808F0C2FE4BE02078A268E9
:102CF000616808F0C1FE45E0207808F0C9FE41E0B7
:102D0000207808F0D1FE3DE02078616808F0D9FE17
:102D100038E02078616808F0E0FE33E02079C1B245
:102D2000207809F005F92DE02EE01CE012E016E015
:102D30000CE007E023E01FE01AE0FFE7206808F05E
:102D40003CFE1FE0206809F06DF91BE0206809F0E7
:102D500052F917E0204607C800F059FC12E020683D
:102D600000F0A5FC0EE06168206800F0C7FC09E0F7
:102D7000206800F03BFE05E000F051FE02E0206814
:102D800000F069FE206070BD0120086070BD000089
:102D900010B5EFF31080C407E40F72B6D64841783F
:102DA000491C41704078012801D109F0A1F9002C9B
:102DB00000D162B610BD70B5CF4CE07800280AD1C2
:102DC0000125E570FFF7E4FF09F09AF9002804D027
:102DD000002009F053F9002070BDC84865714560B6
:102DE000F9E770B5EFF31080C507ED0F72B6C24C6E
:102DF0006078002803D1C2A18F2016F006FB60780E
:102E0000401E60706078002801D109F075F9002D2E
:102E100000D162B670BD10B5B748C178002904D0A2
:102E200000214171C170FFF7DCFF002010BD10B51B
:102E3000044609F065F9B049C978084000D001207E
:102E40002060002010BDF8B50246AB4C0026A671EC
:102E50000820042101251027130016F003FC0D089B
:102E60000A0C0E101214161E262123252800257187
:102E700022E0022001E021711EE020711CE0277198
:102E80001AE02020F9E7012616E0FFF781FF09F09C
:102E900037F90028FBD002260EE02171A5710BE066
:102EA0002771FBE7202000E040202071F6E7FF209B
:102EB00093A17E3016F0A9FA09F02EF9002809D066
:102EC00009F030F9B04205D1304609F02EF900285A
:102ED000FAD024E001208007C5608D4A00215160AE
:102EE0008C4A9661854B02225A6085608A48036944
:102EF0000569DB43DB06DB175B1C10273D430561DF
:102F0000834D00E020BF6F68002FFBD0002B03D162
:102F1000076910239F430761784882606960A07940
:102F200000280CD009F0ECF8054609F031F87B4A8E
:102F3000002D02D0A260E06001E0E260A060002EFF
:102F400001D100F0B1F8F8BD10B5044609F0DEF883
:102F5000002805D068490120C8704A78521C4A7080
:102F60002046FFF770FF10BDF8B5694FB86800251F
:102F7000012802D1BD6009F081F87868012800D1EC
:102F80007D60386801265C4C012814D13D60607971
:102F9000002803D0002009F071F86571207800281E
:102FA00009D009F0ADF8002805D05948C03886632B
:102FB00000060661A670386901282CD13D6100F039
:102FC00068F8012080074661A079002815D009F033
:102FD00097F8009008F0DCFF0099002901D0E16823
:102FE00000E0A168411A022901DA8A1C13DC009969
:102FF000002901D0E06000E0A060FFF7C9FE09F001
:103000007FF8002806D04248C03886630006066173
:10301000A67000E02670F868012819D100F039F890
:1030200000F037F800F035F8A078002804D1FF2030
:1030300033A1053016F0E9F9FD60A5702570FFF7A2
:10304000D0FE08F06EF9002802D03148C038C663BF
:10305000F8BD10B5284CE078002801D109F04CF8F3
:1030600001208107886100F014F8A07800280BD0B7
:10307000274CE068002803D109F057F80028F8D160
:103080000020E06000F005F800201C49C043886083
:1030900010BD08B55020694608806A461088411E58
:1030A00011800028F9D108BDF8B5144819278760A8
:1030B000174900200860C86009F022F8BD07012404
:1030C0000D4E002805D01248C03884632C61B470BE
:1030D00000E03470FFF75CFE084847600D49307926
:1030E0008863FFF7D6FFAC61FFF7D3FF08490020E4
:1030F00008616C61F8BD0000300000200003004052
:103100007372635C736F635F636C6F636B2E6300DA
:10311000000100400005004000ED00E0FFFFFF7FE0
:1031200030B5EFF31081CC07E40F72B61D4A116978
:1031300010230D461D431561002C00D162B61A4DB7
:10314000C406E40E0120A0402C6804420DD0C8063D
:103150000AD4EFF31080C007C00F72B6116999430B
:103160001161002800D162B630BD20BF40BF20BF32
:10317000EAE70E4908784A78401CC0B2904200D075
:1031800008707047084A094820BF40BF20BF4178F7
:10319000037843701368002B02D103788B42F3D07D
:1031A0000020704700ED00E000E200E04000002059
:1031B000F8B50446800700250126002804DA5A489D
:1031C000C563C66302208443E00404D55748C56341
:1031D000C66380148443600003D55548456080056C
:1031E0008443E00504D55348C563C6638015844312
:1031F000A00404D55048C563C663401484436004EA
:103200002104C00FC90F884203D04CA1612016F0E1
:10321000FCF82004800F0AD04D49CD634D48C563AA
:10322000C563CE63C663C663032080038443200561
:103230000AD5494FFD632F20FCF7C2FFFE632F2004
:10324000FCF7BEFFF8148443002C03DA08F052FCAC
:10325000640064084148044203D038A1902016F06D
:10326000D4F8F8BDF0B500210A46FF230446CC404F
:10327000E4072AD04CB2E606F60E0125B540384EDA
:103280003560384E3560002C11DA25072D0F083DCA
:10329000AE08354DB6007719FD69A407E60E1C4649
:1032A000B440A5431446B4402543FD610DE0A60893
:1032B0002E4DB60076193568A407E70E1C46BC40B3
:1032C000A5431446BC4025433560491C2029CDD375
:1032D000F0BD70B5264C0D462060FFF769FF2068F1
:1032E000FFF7C0FF2846FFF72FFE08F051FB08F05C
:1032F000ACF808F0FFFB08F000F800F03BF800F035
:10330000CDF870BD10B51A4C2068FFF751FF20684A
:10331000FFF7A8FF08F0EEFBFFF79BFE0020206000
:1033200010BD134800687047C01F0040C0CF004068
:1033300000E50140C08F0040C0DF00407372635C55
:10334000736F635F636F6E6669672E6300000000D2
:10335000C0EF0040C0FF0040C0BF0040FEFF0FFCB8
:1033600080E100E080E200E000ED00E000E400E049
:103370004400002001203E49400608603D490860A5
:103380003D490A68FF231B029A4383121A430A60CD
:10339000374980390860704710B502460620374922
:1033A00004E0C3005B181B79002B0AD00346401EC3
:1033B000C0B2002BF5D132A1482016F026F8FF202C
:1033C00010BDC300CA50002259184A718A710122E7
:1033D0000A7110BD294A0021C00080180171704790
:1033E00010B50446062803D325A1572016F00DF882
:1033F0002248E1000C182079012803D020A1582090
:1034000016F003F86079A179401CC0B2814200D067
:1034100060710120164940068031086010BD70B50A
:1034200015480068800B022803D015A1722015F002
:10343000ECFF124D184C05262078C100481902797E
:10344000012A07D1427983799A4203D04279827165
:10345000685880472078401CC0B22070062801D3ED
:10346000002020703046761EF6B20028E4D170BDF0
:1034700080E100E080E200E018E400E06004002069
:103480007372635C736F635F7369676E616C6C69A1
:103490006E672E630000000048000020A349002052
:1034A00008708870A24908707047F8B59F4C0E46A6
:1034B0006178884203D09FA15A2015F0A6FF03250A
:1034C000330016F0CFF8095F063C3C5F5F5F5F5644
:1034D0005F002078022803D096A15E2015F095FFAA
:1034E0002570A078022802D0012804D020E0A0682E
:1034F00008F0E4FD1CE0934F01207860924E3068A4
:103500000028FCD000222569E168A06807E00B686C
:1035100003603368002BFCD0001D091D521CAA4219
:10352000F5D3E160A0600020786030680028FCD00E
:103530000020A070FEF7D2F804202070F8BD20789B
:10354000022803D07BA1782015F05FFF60687849DE
:10355000401C6060032801D84D7003E0062806D89F
:103560000220487072496078FEF7B6FCF8BD03206F
:1035700003E0A0780028FAD1022008F07FFD00F0D7
:10358000CBF8F8BD6BA1A02015F03FFFF8BD70B5DA
:103590000546664C002060602078012803D065A1B4
:1035A000A72015F032FF6249022008738D600322C4
:1035B0004A7020706078FEF78FFC70BD10B55B4CD0
:1035C000A078002802D12078002801D0112010BD59
:1035D0005E48FEF7C2F860706078002803D00120D2
:1035E0002070002010BD032010BD10B50124020B77
:1035F00064040121564BA04202D29140186802E0B7
:10360000203A58689140084000D0012010BDF8B51C
:103610000E46910004460F1915463F1F009108F011
:103620005EFD009980028919091FB14201D2012172
:1036300000E00021002D03D0FF220132954201D984
:103640000920F8BD434A94421DD3A7421BD38442AC
:1036500001D2874203D3404820187C2803D8204653
:103660003043800701D01020F8BD96420BD30029CB
:1036700009D12046FFF7B9FF002804D13846FFF7EB
:10368000B4FF002801D00F20F8BDFFF797FF0028F6
:10369000FAD126480121C660056184608170284600
:1036A000312148431430FFF772FF0020F8BD10B5F8
:1036B00004462848800A84420BD308F010FDA0423B
:1036C00001D8102010BDA4022046FFF78EFF00286D
:1036D00001D00F2010BDFFF771FF0028FAD1134869
:1036E0000221846081701D48FFF751FF002010BD4A
:1036F0001848010B01208840401E704700B50B465A
:103700000246FFF7F5FF104201D00F2000BD104820
:1037100002604360002000BD10B5044C6078FEF7E5
:1037200070F800202070A07010BD00004C00002038
:10373000900400207372635C736F635F666C6173E7
:10374000682E630000E5014000E40140AB34000056
:10375000000600400000020080EFFFEF1054000060
:10376000E44900204870087088704860E249087396
:10377000704710B5E148826A81158A43DD498B693B
:103780001A438262826A0223C9699A430A438262A7
:10379000FDF7A4FF10BD002815D001784A0802D01B
:1037A000490801290ED18168D54A6439914209D26C
:1037B0004068D449884205D8CE494978012903D1C7
:1037C000002801D0002070470120704770B50446E2
:1037D000FEF73CFC0068002803D0CBA1802015F048
:1037E00014FE0126C34D002C06D0207800282CD0D2
:1037F000012828D0022801D0EE7024E02878002883
:1038000021D16068FFF7C7FF0028F5D06068007815
:10381000C00700D00220B84E3070606880689630D3
:10382000B06060684168E868FEF7ADFA7060606893
:10383000032400784008002808D07470AE49A878A6
:10384000FEF74AFB6C70FFF794FF70BD02207070AA
:10385000F4E7F8B5A74C0D46A178884203D0AAA199
:10386000BF2015F0D2FD284600270526A24D0300F3
:1038700015F0F8FE09061135587F8997B8A2B800EF
:103880006078032806D06078022803D09EA1C32068
:1038900015F0BBFDF8BD6078032806D060780228DB
:1038A00003D099A1C72015F0B0FD04206070E77027
:1038B0002078002802D0FDF711FFF8BDA8689638DF
:1038C000FEF7B2FE6868E0608C48816A821511409C
:1038D000A161806A02210840E06100205CE060781C
:1038E000032806D06078022803D087A1E22015F0D3
:1038F0008CFD2078002802D000F0EFF8F8BD607849
:10390000032802D02069410020E004202DE07A49FC
:10391000A078FEF7E1FAF8BD042008F0AFFB012023
:103920006070F8BD6078032807D06078022804D062
:10393000FF2075A1043015F068FD20780028DBD148
:103940006078032810D06868A06076492161A0687B
:10395000FEF719FA686069686069FEF7D3FE684986
:1039600063318842D8DCD2E7052008F087FB667017
:10397000F8BD6078042804D0FF2063A1263015F03C
:1039800044FD022008E06078042804D0FF205EA1F6
:103990002B3015F03AFD012061688847FFF716FFCC
:1039A000F8BD6078042804D0FF2057A1303015F00E
:1039B0002CFDFFF7DEFEF8BD6078042804D0FF2060
:1039C00051A1353015F021FD2078002894D1E07800
:1039D000002805D0062008F051FB6670E770F8BD9E
:1039E0000720C2E7FF2048A14B3051E770B5050022
:1039F00005D0404C6078002803D0112070BD102005
:103A000070BD4948FDF7A9FEA070A078002804D039
:103A1000656001206070002070BD032070BD10B58E
:103A200034480178002901D0112010BD41780029C7
:103A30000BD0417805290AD04178012907D001210E
:103A400001704078052802D003E00F2010BD00F07F
:103A500044F8002010BD70B5264C06466078052855
:103A600004D06078012801D00F2070BD002E25D031
:103A70003046FFF790FE002822D060781E4D0128C6
:103A800020D07168E068FEF77EF96860B068963013
:103A9000A8603078C00700D0032028703078400834
:103AA00017D0032068706078052814D00220607059
:103AB0001149A078FEF710FA002070BD102070BDEB
:103AC000072070BDFDF7B8FE6061A0601549216157
:103AD000D9E70220E6E70320E9E710B5054CA07816
:103AE000FDF78FFE082008F0C9FA002060702070F2
:103AF00010BD000060000020A00400200005004070
:103B00003D860100FF1FA1077372635C736F635FE3
:103B1000726164696F5F74696D65736C6F742E6335
:103B20000000000024080000533800008107C90E7F
:103B3000002808DA0007000F083880082C4A8000A7
:103B40008018C06904E080082A4A80008018006854
:103B5000C8408009704710B50D20FFF7E7FFC4B2D9
:103B60000420C043FFF7E2FFC0B2844203D022A189
:103B70001B2015F04AFC10BD0121244A48031060A7
:103B8000234B00221A60234A5160234A1060234AC3
:103B900011601E4980390860704701211B4A4803A3
:103BA00010601E4A51601A4A002111601A490860CB
:103BB000704710B516490868012804D00EA15B2093
:103BC00015F023FC10BD164880680022C0B20A60C0
:103BD00007F0FDFC10BD10B50D4801680029FCD0B0
:103BE000FFF7E7FF01200C494003086010BD00000B
:103BF00000ED00E000E400E07372635C736F635FEC
:103C000068616C5F726E672E6300000080E100E007
:103C100000D1004000D3004080E200E000D000402E
:103C200000D50040F8B5FF490120C860FE490025D5
:103C3000CD63C863FD49CA6AD2070DD1FC4A0B6B3C
:103C400053624B6B93628B6BD362C96B1163F949FF
:103C5000C307096819435163F74C6561F74FF84B87
:103C60007968CA781202D218A261A26901235B06A0
:103C70009A43A261F34B03221A60F34A1561D5609F
:103C800055601560F14AA263120796690346B34373
:103C90001B029B1C6363EE4BE3638B79E360206341
:103CA000E562966903469269B3439043834098075F
:103CB000800F2061C87A0E1D002807D0CD72606A7F
:103CC000000A00026062E069E56112E0606A000AD1
:103CD00000026062707805F037FB616A0843606239
:103CE000E069E561307805F02FFBE16900060843E3
:103CF000E06178688078A060D64910204860D64896
:103D00000168FF22120291430160D4490220086039
:103D1000C448C560F8BDF8B50A46C849FF25013555
:103D2000CF4F012600244868092A72D213007B4431
:103D30001B79DB189F44043EFDFCC0FBB46DFA0008
:103D40000C46097802291AD02178032917D0407827
:103D5000C44F012815D001F05AF8FFF763FF00F0B7
:103D600053FFB5494860FEF76CF9BF4A391F086038
:103D70003A60BE4845606068006AFEF755FC6670B0
:103D8000F8BD01F0B9F8FFF74DFF00F03BFFAA497D
:103D90004860FEF756F9B749B54A08603A60B3483B
:103DA0004560B74AB449B54B1160111D0B60411510
:103DB0004160E0E7A1494978002921D09F490A786C
:103DC000022A27D00A78032A24D03D60AD490C602E
:103DD000AD4AC3691360AE4BAC4A1960191D0A6045
:103DE0000A15A2494A604178012953D00121417244
:103DF000007AC00701D0FDF729F990484470F8BD5A
:103E00008E4D407801F086F9A878FFF7E9FA2C701A
:103E10003DE0F0E04078012823D0944885609D493A
:103E20000C614C61011581609248046144618548D0
:103E3000046002203860874AC11E916082490C618B
:103E4000894A16610A69002AFCD00C61CC604C607A
:103E50008C600C609049086078480078032803D093
:103E600008E000F07CFAF7E701F05CF9734880782D
:103E7000FFF7B6FA01208949000488608848466047
:103E8000804804603D60844805606C480470FDF71C
:103E900025FCB2E702214172007A8007ABD4ACE77F
:103EA00001207E49000488607D48466075480460B2
:103EB0003D60794805606CE04078012846D001F00B
:103EC0006AF86A48856073490C614C61011581602C
:103ED0006848046144615B480460022038605D4AC0
:103EE000C11E916058490C615F4A16610A69002A37
:103EF000FCD00C61CC604C608C600C606649086042
:103F00004E480178022938D007468078FFF768FAD2
:103F10007968002048723C700120604900044860C4
:103F20005F48C6605848B921016003E047E048E0B7
:103F300040E031E0534804605A480168090A090228
:103F400001605548056045480560F8BD3E48416838
:103F5000012906D1C068012803D15348006801280F
:103F600004D001F018F800F0FAF9C9E700F04EFFAC
:103F700001F011F800F0F3F9C2E70121474A090402
:103F8000916047494E603F490C603D6042490D6079
:103F90000470FDF7A3FBF8BD0D460978022901D195
:103FA0002C70F8BD407801F0B5F8A878FFF718FA42
:103FB0002C70F8BD0D4609780229F3D1F0E70C709A
:103FC000F8BD30480268002AFAD004600978012957
:103FD00004D02D480168B9310160F8BD01212F4A94
:103FE000090491602E494E6004603D602A480560D6
:103FF000FDF774FBF8BD2DA1314815F006FAF8BDA8
:1040000070B50E4D012668601549022008602249EE
:104010000860114900240A68FF231B029A430A60C2
:104020000E494FE0000A0040C01F00408000001011
:1040300000170040C0000010001500408000002064
:104040001E0001010012004000110040211000007C
:10405000FFFF00000013004000E400E000E100E08A
:1040600080E100E054F501400010004000F50140FF
:104070000410004050F501400411004014100040AD
:1040800058F501404081004040850040101000403C
:1040900060F5014040F5014080E200E0008300400F
:1040A0000080004008E400E0001400407372635C8C
:1040B0006C6F776572737461636B2E630000000030
:1040C0008E0300000860BC48AC60FDF746FB6968E1
:1040D0000870CC710E724C728C72CC722C706C7039
:1040E00070BDB6484068C179002905D010B50021DF
:1040F000C171FEF776FE10BD704710B5AF4824229F
:104100004168525C002A0AD00A78002A07D0027857
:10411000002A04D0022202700278002AFCD172B672
:10412000C879002803D00020C871FEF75AFE62B695
:1041300010BDA24824224168525C002A07D00978A9
:10414000002904D00178002901D0032101707047B3
:1041500010B59A4CA068002806D19949994815F0E5
:1041600054F9A068002802D0A1680020884710BD3B
:10417000002807D010B5914CA0609348FFF70CF9C8
:10418000A07010BD704770B50C46054600F03CFDB0
:104190002246294614F052FF70BD70B5874C154673
:1041A00062680023537010615173137601F0BFFCF5
:1041B0000126002806D060687D21C90006736918B1
:1041C000416105E06068032101738049691841611C
:1041D0006168CD6148696438086208780C31FDF780
:1041E0007BFE267070BD70B5744C15466268012662
:1041F0005670106151730020107601F098FC002871
:1042000006D060687D21C90006736918416105E028
:104210006068032101736D49691841616168CD616E
:1042200048696438086208780C31FDF755FE26703D
:1042300070BD10B561488078FFF7D2F810BD10B599
:10424000FDF7A1FD10BD10B5FDF7F6FA10BD5B49F5
:10425000496888717047594949688870704757495B
:1042600049688880704755494968C8707047534904
:1042700001204968C872704710B5504C6068807A58
:10428000002812D1FEF784FD5149012008606268C0
:1042900050499379CB6000230B6193788B604E4B30
:1042A000032119604D490860907210BDF8B5434F65
:1042B0007868807A002824D0454A002414600121BF
:1042C000474802250560474B4017986046480461FF
:1042D000424B19610669002EFCD00461C460446041
:1042E00084600460414E3560146004613A4A146091
:1042F000196101690029FCD00461FEF772FD78683C
:104300008472F8BD3848C069002803D032488068FC
:10431000404240B2704729484068C179002905D120
:1043200010B50121C171FEF733FD10BD704723495F
:1043300049680872704721484068007A70471F48F2
:104340004068407A012800D0002070471B48406830
:10435000407A022801D0002070470120704770B4D5
:104360001E4C0121A16120480022C261204B45154D
:104370009D60204D2A616A6185159D601E4D2A61F0
:104380006A6105159D601D4B1A615A61104B1A60D8
:10439000134D02232B60134E8D1EB5600261216107
:1043A00001690029FCD00261C26042608260026043
:1043B0000E48036070BC7047173D0000800000206D
:1043C000AC4000001104000051410000B80B000097
:1043D0000012004000150040401500400010004051
:1043E00080E100E0001300400011004080E200E0A6
:1043F00000F5014048F5014040F5014050F501400D
:10440000FC49095CC90701D0FB4900E0FB49085C95
:10441000704710B5FA4A03211078030721D5F72316
:1044200018401070F74AF34BD0791B5CDB0701D0C2
:10443000F14B00E0F14B185C002804D0012804D0B7
:10444000022803D101E0022100E00121EE48837936
:104450002038006E002B05D0127ED200E132FFF72B
:104460009CFE10BDD28DE94B5A43520AFFF7BBFEAA
:1044700010BD10B5E3488079801E11282DD20300AD
:104480007B441B79DB189F44080808082828082962
:104490002828294A282828080800DA4C608FA18F8C
:1044A000626E401AD94980B24843410AC005C00D26
:1044B00080186066820500D5491CC005C00D606685
:1044C000E06DFFF7BCFEA0652066CF48002181713A
:1044D0000830017808221143017010BDC94C608F6B
:1044E000A18F626E401AC94980B24843410AC00593
:1044F000C00D80186066820500D5491CC005C00D3E
:104500006066E06DFFF79BFEA0652066BE48012156
:1045100081710830017808221143017010BDB94C37
:10452000608FA18F626E401AB84980B24843410A39
:10453000C005C00D80186066820500D5491CC00505
:10454000C00D6066E06DFFF77AFEA06510BDAD4856
:10455000AF49C079095C490702D5A84A0121115425
:104560007047012A00DC0122491E401ED30703D0F8
:10457000491C0B78401C0370521007D04B784370D5
:10458000891C801C0B780370521EF7D17047C27BC8
:104590000F21521CC27304E0491EC9B2425C521C76
:1045A0004254425C002A01D10029F5D17047002A0B
:1045B0004ED0FFB5974883B001461F3110301546E5
:1045C00001910090102D04D91024924807F033FA7D
:1045D00005E02C468F4807F02EFA002C22D00399D4
:1045E0000498491E401E019AE30706D0491C521C3C
:1045F0000B7816787340401C037063080CD04E781B
:104600005778891C7E404670921C0E781778801C63
:104610007E4006705B1EF2D1039800190390049847
:104620000019049000990F20CA7B521CCA7304E041
:10463000401EC0B20A5C521C0A540A5C002A01D116
:104640000028F5D1281B05062D0EBBD107B0F0BD03
:104650007047F8B56A486B4C00786F4F8107E07976
:104660000D225043C01900296DDB6C496D4D09784E
:104670008A076B490E780CD16B490978490708D530
:10468000F10606D52978CA0903D1A222114329705F
:1046900001715C4A2978137EC9075A1F002937D057
:1046A0003007624E32D562499B1FA164082B09DD99
:1046B000DAB20023891DB01DFFF779FFA16C707974
:1046C000487105E0D2B20023491D701DFFF76FFF4E
:1046D000E0790D2250435649C01902780A70427899
:1046E0004A7082788A70C078C870A16C307908717D
:1046F0002878000704D508224E494F48FFF731FFBC
:104700004E488022017811430170F8BDA664F8BDBF
:10471000310718D5464ED2B2401D0023711DA66444
:10472000FFF745FFE0790D214843C1190522A06C30
:10473000FFF717FF28780007E9D50822711D3E48CA
:10474000FFF70FFFF8BDA064F8BD082A01D92720A4
:104750007047F8B504463A489C46027839485306F3
:1047600003D5002C04D13120F8BD035D9B0711D087
:104770003448005DC3060FD4334B1B5D9B0609D440
:10478000430607D4520607D40A0605D58007800FD2
:10479000022801D21520F8BDA020014002200143CB
:1047A000194E1848F471C2790D4613300021007873
:1047B000944208D1002806D0430704D4234909783D
:1047C000C90960D10121224B1F78BB0644D5DF23E4
:1047D0001F401F4B94421F7003D1002901D10028B4
:1047E00044D11C4801788906890E0170FF20F071C0
:1047F0002120F8BDB0010020B8010020D801002020
:10480000B40000208C000020AC000020093D000016
:1048100090010020DE060020B00400209F00002050
:10482000960000209D0000209700002056050020E3
:10483000180500201D050020560100209A000020C8
:10484000990000200E01002016010020A000002089
:104850009B0000209C0000200D2327465F43F84B5F
:10486000FB181B791B0601D500290CD0F54F94428B
:1048700011D1F54A00290AD0F449F7230D70F44903
:104880001840087006E0FF20F0711F20F8BD107876
:104890002843107015780D2021464143E84808222E
:1048A00008180571401D6146FFF75BFEF8798442E8
:1048B0000CD1E7490978002908D1290606D5E54930
:1048C000095C490702D5E44A01211154E348DF227B
:1048D000015D11400155FF21F171E149095D890632
:1048E00011D5E0490A5D93079B0F012B05D10023E9
:1048F000035590088000801C0855DB48007880062E
:1049000001D404F095FB5020F8BD817903794279F8
:10491000481E934201D1C0B270479A1A891A0140C9
:10492000491EC8B27047F0B5D04D06462B469B795C
:1049300028796F795C1EB84201D1E4B204E0C71B4C
:10494000DF1B27407F1EFCB2D708BC422AD38C460F
:10495000181AC1B2C54814460079C54AC00080186B
:104960008F4202D8224661460AE0C9060D0E2A4649
:104970006146FFF7F6FD601BC2B260464119BC48B4
:10498000FFF7EFFDB00604D5BA4880220178114345
:104990000170B64801798279C919521E114001711E
:1049A0005020F0BD2220F0BDF8B5B34C8227A07A8C
:1049B000012813D1B14DA88800280FD0A14E306F27
:1049C000002804D001210170A88800285CD0207B39
:1049D000810706D5A988082902D002E02120F8BD68
:1049E000A027C00721D1E07A0D21484394494018FF
:1049F0000079000614D508223846F16EFFF793FFC0
:104A0000502859D1F06E0830F066A8880838A88080
:104A1000B80636D59748802201781143017030E0FE
:104A20009448202102780A43027008223946E07A2D
:104A3000F36EFFF78AFE5028D1D1F06E0830F06691
:104A4000A8880838A880227BD0071AD08C48037821
:104A5000590608D5411D097800291DD0490702D4FF
:104A600020210B430370E07A6072804900200871B6
:104A70004871804801784906490E0170500840008D
:104A80002073A8880028A2D10220A072306F0028CD
:104A90000ED0002101700FE010210B430370794903
:104AA000002008707077F08EB086F07FB077DAE77C
:104AB0001121607A00F047F85020F8BD10B56E4A19
:104AC000D37A984215D1052907D0062905D0852922
:104AD0000FD1FFF769FF00210BE0FF23674CD37272
:104AE0000020A0809072403C246F002C00D02070E9
:104AF0005372084610BD10B45A4C634B634A0929DF
:104B00000CD0022908D1215CC90605D45249095CA0
:104B1000002910D04000135210BC7047215CC90618
:104B200002D541005A4A00E041005352594AFE2141
:104B3000115410BC70474000574B115A1B5AC918EA
:104B4000115210BC7047F8B50446464B4E4A4F48C8
:104B5000092902D002290DD01CE01B5DDB0603D51C
:104B60004B4B60001A5201E06300C252494BFE22D7
:104B70001A550FE01B5DDB060CD4374D2B5D002B67
:104B800002D06300C25205E06200434D835AAD5A21
:104B90005B19835238480027C27A2A4D944213D1B8
:104BA000052907D0062905D085290DD1FFF7FCFE80
:104BB000002109E0FF22314BC2729F8087722B6F68
:104BC000002B00D01F7042722A4A13785807C00F7A
:104BD000401E084215D06878461CF6B26E70102E42
:104BE00000D36F706E782D78AE4203D104210B4351
:104BF0001370352142002948845410184170FCF785
:104C000025FAF8BD264870472648704710B5FFF7CB
:104C100074FAFFF74BFB10BD10B50446080601D52A
:104C2000104604E0052900D304211F48405CFFF72B
:104C30000EFB2046FFF70FFBFFF71EFB10BD000029
:104C4000B00400208C0000209D000020A000002067
:104C50009F00002090010020D801002006010020C4
:104C6000160100200E01002099000020880100207C
:104C7000B60700209B000020AC000020CC000020E4
:104C80009A000020A8000020FFFF00006608002016
:104C900056080020C80100204A0600205A060020BD
:104CA00092050020360500209B96010010B5FA4BB6
:104CB0000C0601D51A5405E0052900D30421F74A52
:104CC000515C1954F649C979884202D1185CFFF742
:104CD000BEFA10BDF34A1154D23AD279904204D1AF
:104CE00010B50846FFF7B7FA10BD7047ED49085CEC
:104CF0007047ED4A40001152704730B4EB4CB0227F
:104D00002254EB4A135C5B065B0E1354002907D058
:104D100027258900ED43691A215480210B43135440
:104D200030BC70477047F8B5DD4CE24DA76E2E8859
:104D3000FFF789FA01463846FDF7E4FCDE49002812
:104D400005DA4042400214F03EFA301A03E0400215
:104D500014F039FA801980B2D849E08709788907B8
:104D600004D0D349E279895CC9064ED4D4491023D2
:104D70000A78D44E1A430A70618F227E081A411EA7
:104D800009044B0C11460D39C910491CC9B2000465
:104D90002171000C03D0B04201D8C81820710D2A2F
:104DA0001CD9C948C949012A00DC0122401E491EFC
:104DB000D30705D0491C43780F787B404370401CD3
:104DC00052100BD043784F78891C7B404370837816
:104DD0000F787B408370801C521EF3D1FFF792FA4C
:104DE000BB49E2798854A07912280ED12988E28D36
:104DF000E08F8918091A89B2B14202D900212186AF
:104E000000E02186608705202071F8BD8BE7F8B5AA
:104E1000FFF71FFCAA4EF72130780840307072B6B9
:104E2000FFF779FA62B6AB489D4C00782546C0077B
:104E30002035002807D02878062804D2A649085C27
:104E4000FFF709FA09E030784106964801D5007865
:104E500001E0E179405CFFF7FEF9207EFFF703FAFD
:104E60009E489F49007808719E490978890701D4B6
:104E7000A16C0871C00734D0207E84460D2826D945
:104E800099480078C009A06C1DD066468F4A012E53
:104E900000DC0126401E521EF10705D0521C43784B
:104EA00017787B404370401C731010D047785178BE
:104EB000921C4F404770877811784F408770801C54
:104EC0005B1EF3D103E00179ED2251400171864868
:104ED00001784906490E01706146A06CFFF753F94D
:104EE00003E00D21A06CFFF74EF9E879E1798842E3
:104EF00001D1FFF7BCF9F8BD70B5714CF7212078EE
:104F00000840207072B6FFF706FA62B67148644D29
:104F10000078C00708D075480078062804D26E498A
:104F2000085CFFF798F909E0207841065D4801D553
:104F3000007801E0E979405CFFF78DF9287EFFF702
:104F400092F970BD10B456495548CA79437900208A
:104F5000674C5100092B09D0032B0ED0042B14D021
:104F6000122B01D16349885410BC7047624B9A5C84
:104F70005206F9D5605210BC7047514A1278D206D9
:104F8000F9D55E4A505210BC70475D4B9A5CD2070F
:104F9000F0D010BC704710B441494148CA794379F8
:104FA0000020534C5100092B09D0032B0ED0042BA9
:104FB00014D0122B01D14F49885410BC70474E4B6E
:104FC0009A5C5206F9D5605210BC70473C4A127880
:104FD000D206F9D5494A505210BC7047484B9A5CEA
:104FE000D207F0D010BC7047F0B42D48454F45793A
:104FF000C0793F4B424901263E4C4200092D09D061
:10500000032D11D0042D14D002220C2D21D0052DFA
:105010001FD039E0245C002C01D09F5204E03A4CB0
:105020009D5AA45A2C199C520A5C32430A54F0BC73
:105030007047095CC907FAD1205C002802D09F5252
:10504000F0BC70473048995A805A08189852F0BC02
:1050500070471A4B1B789B0716D02C49095C4907EF
:10506000F5D5224900254B7B5B1CDBB24B73275CDB
:10507000002F01D0225404E0254A125C9A42E6D85F
:1050800026544D73F0BC7047122DFBD10B5C1343BB
:105090000B54F0BC70470000660100209B96010095
:1050A0008C0000205E010020CE060020760100204A
:1050B00006010020CC000020093D00009F000020D8
:1050C000990000200080000092050020A0960100B9
:1050D0006E010020A8000020000100209D0000209B
:1050E00056050020B40000209A000020AC000020EB
:1050F00056080020D80100200E010020660800207C
:10510000C0010020FFFF00004A060020900100209F
:10511000A801002010B5002801D1FFF79AFAFFF787
:1051200063FF10BDFB49102088717047F3B5CF783D
:105130008B788FB05F40CF700E797E400E710996EC
:105140004D79B44675404D710C95887968408871E9
:10515000CA794240CA714C7854404C7008940E7819
:10516000A64666400E70EF240A9626408F246640BD
:1051700000967446BE26344036267440009E344362
:10518000A646EC241E46264020246640744626434C
:10519000B646BC06A40E1A26744076463443A6468C
:1051A0006646D72426404724664074462643DB24BF
:1051B0002540112465403543792604463440502665
:1051C00074402C43F72516462E4093256E40264307
:1051D0000F9C6500002E04D0D049CF48485311B031
:1051E000F0BD0A9C10263440A446089E4124264067
:1051F00064462643B446099C282634406646344318
:1052000086263040204313242340BC09A4010870A3
:105210001C430C9B242633402343082422401A437A
:105220004A7011020143BD48415311B0F0BD7047AF
:10523000704710B506F0A5F910BD10B5102106F0A5
:10524000A0F910BD00B501461022B548FFF789F955
:1052500000BD00B501461022B248FFF782F900BD3B
:1052600030B50D460446002A13D0012A10D121463C
:1052700003220D312846FFF774F90A22E11CE81CCD
:10528000FFF76FF92846032221460D30FFF769F931
:1052900030BD214604220C312846FFF762F908226E
:1052A000211D281DFFF75DF90422284621460C30F8
:1052B000ECE79E499C480860002008714871102264
:1052C0008A719B49FF239B4A4B725080CB7290801E
:1052D000887220390867704797490B5C990601D599
:1052E0001520704770B5954D2C5CA107890F0129D9
:1052F00003D193490A78510601D5152070BD914913
:105300000E5CF60901D0A02600E020260E54A1086C
:105310008900891C29548C490C5C640864000C5475
:105320008A4C002140002152900601D403F080FEF7
:10533000002070BDF3B581B07D49684602794B7A93
:1053400040799A4205D1382801D0392801D1FF206F
:10535000487279480024805C400700285FDA019891
:105360000090684600787549095CCA0678496A4623
:105370001FD55378774A052B18D0062B02D0072B60
:105380004DD112E04500744E535B765B9E19B6B268
:1053900056539E4243D80A5C704BD21CD2B20A5478
:1053A0001B5C9A423BD90C5414E00C54400014523C
:1053B00035E05278012A0AD0072A1ED0082A09D0DF
:1053C000802A2CD10A5C062A29D20C5427E00A5CD8
:1053D000521C0A54624F4100624E43184D4A3D5CD4
:1053E000F15CD2798D420ED19919497839549042A5
:1053F00015D10846FEF72FFF11E00A5C062AE4D219
:10540000FFF76AFF0BE09B195E78B54204D19978EB
:1054100039549042EDD002E039549042E9D00198DD
:10542000009068464078411E0A46092906D80121A5
:105430009140404A5288114200D0FF20694648718D
:10544000FF2801D102980470888803B0F0BD01796B
:1054500042798079891A401E0140C8B27047F8B578
:10546000324F0E460446387979790022401AB979CC
:105470006270491E0840C1B28322A01C22708E4275
:105480000ED9394A1278D2091CD0012262700170FB
:10549000451C0E4607220021284603F028FFE81D80
:1054A0000546F006060E2148F308817940799C46AE
:1054B000091ACAB21C49934206D8C00041183246A4
:1054C00028460DE00020F8BDD206C000170E411896
:1054D0003A462846FFF745F8F01BC2B2E8191249D0
:1054E000FFF73FF81148204B427981796244491E09
:1054F0000A40D2B242711B78DB0909D00079801AC8
:1055000008400006000E03D12078202108432070B7
:105510000120F8BD8C0000205B250000CE06002095
:10552000DE060020EE060020B607002088010020DD
:10553000AC000020CC000020160100200E0100204D
:1055400099000020060100203E0100202A060020CC
:105550007E0100200E0700204A06002036010020B0
:105560005E0100201E0700209B000020F0B50446CD
:10557000FB4801794279891A8279521E1140090645
:10558000090E35D08221217081794079651C091A74
:105590000826C9B2F34A012904D3C0008118324653
:1055A00028460BE0C9060F0EC00081183A4628466F
:1055B000FEF7D7FFF01BC2B2E819EA49FEF7D1FFA8
:1055C000E748E94B42798179521C491E0A40D2B220
:1055D00042711B78DB0909D00079801A0840000667
:1055E000000E03D120782021084320700120F0BD57
:1055F0000020F0BDF8B59446DC4A05461E461278F8
:10560000CB082120520603D5002D0DD13120F8BD45
:10561000D74A525D920607D4D64A525D9207920F3E
:10562000022A01D81620F8BDD34CA27AE77A002AC4
:1056300009D0012A2ED0022AF5D1CB480078C00922
:105640000AD01F20F8BDF00708D0FF2FF9D1D800ED
:1056500088420AD1E5720AE0F00701D02020F8BDA7
:10566000AF4202D1D800884201D03320F8BDC34AEE
:105670006046D066C248818026730120A072FFF781
:1056800093F9F107F2D05028F0D0FF21E172002108
:10569000A172F8BD2220F8BDB749897A002901D04E
:1056A0001F2103E0B54A00211067017008467047CA
:1056B000B148807A002801D01F207047AF4A0020EF
:1056C0001067704710B40C78042C02D910BC30203D
:1056D0007047AC4B64061A5C640ED209D2012243B7
:1056E0001A5452064978520EC9010A431A5410BC82
:1056F000002070470A79042A01D330207047A24B5A
:105700000001C018920000B580180422FEF729FF9E
:10571000002000BD0D2250439C4A80184171C27880
:105720009207920F022A01D0090A817170479449A9
:105730004880704792498A7802704988090A417006
:10574000704770B544000519914C61552C19627071
:10575000904AA3701154D23AD279904202D10846AD
:10576000FEF779FD70BDF0B400201D235B028A4E68
:105770008A4F014602258A4C0D222254894A8A4CBE
:10578000115404222254894C4200A352B352884C33
:105790003D542154874C2554874C2154874C215427
:1057A000874C2154874CA152874CA152874A1154EF
:1057B000401C0828DFDB70484173F0BC70470A7852
:1057C000774B1207120F1A544A7808331207120F38
:1057D0001A548A7810331207120F1A54CA78083BE9
:1057E0001207120F1A544A790B7912021A436F4B9F
:1057F00040001A52CA798B791102674A1943115233
:105800007047674A125C1207120F0A70654A125CF1
:105810004A70624A125C8A70634A125CCA70634AB8
:105820004000135C0B71125A120A4A715A4A135CF7
:105830008B71105A000AC87170470A785C4BD20706
:10584000D20F1A544A785B49022A0A5401D902221B
:105850000A547047564A125C0A70564A105C4870E7
:1058600000208870C870087148718871C8717047CD
:10587000F0B4424D0021EE790A46B04208D14E4CB8
:10588000FB27235C5B085B003B4023543A4B5A7375
:10589000384B434C1B5C9F07BF0F022F13D0DD43D7
:1058A000AD073CD1255CEC0728D0DB0639D5430099
:1058B000444F3E4EFC5AF65AB4421FD344498C42E0
:1058C0001AD1022119E0B04202D16B79082B0ED017
:1058D0003B4B1D5C6D1CEDB21D54245C24071CD594
:1058E000314C245CA54218D301211A5415E0225CE6
:1058F000120712D5012110E00121FA522F4B1C5C36
:10590000641CE4B21C54AD0707D5264D2D5CAC4297
:1059100003D3FF2C10D001211A542C4A1154F0BC8F
:1059200070474300284F1C4EFC5AF65AB442E5D348
:1059300027498C42E0D1C4E70221EDE72548184A07
:105940000078224983060D48C07903D4224B1B7886
:105950009B0643D5125C520749D5022246E000005F
:1059600088010020B60700209B000020990000203D
:10597000160100200E010020AC0000208C00002049
:10598000CC0000201E01002036070020B0040020BB
:105990001E0700205E01002046080020A80100200C
:1059A0009001002098010020A0010020360800206E
:1059B000B0010020B8010020C0010020C801002073
:1059C000D00100205608002066080020D8010020E1
:1059D000FFFF00009D0000209E000020F84B1B5C94
:1059E0005B0705D5125C520701D501220A547047A6
:1059F00000220A547047F8B5F24800240470F24DB2
:105A0000FF20F349E871F14A0A600C714C711022D1
:105A10008A71F04968724C80E8728C80EE48AC72F2
:105A200004670020ED4BEE4F0226EE4A0D21115483
:105A3000ED49EE4A0C54042111541D22520241003A
:105A40005A527A52EA4A1654EA4A1454EA4A165406
:105A500008321454E94A1454E94A1454E94A545295
:105A6000E94A5452E9490C54401C0828DDDBE84857
:105A70006C730470E748D84F0670FF26BE70E64A84
:105A8000FC7001211170E64938460C70E549E84B7D
:105A90000C70E549E14A0C703C707C70BC71E349C4
:105AA000FE710C700D2101760321C1754476C38609
:105AB000F9770A20107072B6FEF713FB62B6DD4963
:105AC000DD4A012011804300401CC0B2D152082899
:105AD000F9D300216C71C9433987D84A0720D84BC4
